{
  "_format": "hh-sol-artifact-1",
  "contractName": "IDOPool",
  "sourceName": "contracts/IDOPool.sol",
  "abi": [
    {
      "inputs": [
        {
          "internalType": "contract ERC20",
          "name": "_rewardToken",
          "type": "address"
        },
        {
          "components": [
            {
              "internalType": "uint256",
              "name": "tokenPrice",
              "type": "uint256"
            },
            {
              "internalType": "uint256",
              "name": "softCap",
              "type": "uint256"
            },
            {
              "internalType": "uint256",
              "name": "hardCap",
              "type": "uint256"
            },
            {
              "internalType": "uint256",
              "name": "minEthPayment",
              "type": "uint256"
            },
            {
              "internalType": "uint256",
              "name": "maxEthPayment",
              "type": "uint256"
            },
            {
              "internalType": "uint256",
              "name": "listingPrice",
              "type": "uint256"
            },
            {
              "internalType": "uint256",
              "name": "lpInterestRate",
              "type": "uint256"
            }
          ],
          "internalType": "struct IDOPool.FinInfo",
          "name": "_finInfo",
          "type": "tuple"
        },
        {
          "components": [
            {
              "internalType": "uint256",
              "name": "startTimestamp",
              "type": "uint256"
            },
            {
              "internalType": "uint256",
              "name": "endTimestamp",
              "type": "uint256"
            },
            {
              "internalType": "uint256",
              "name": "unlockTimestamp",
              "type": "uint256"
            }
          ],
          "internalType": "struct IDOPool.Timestamps",
          "name": "_timestamps",
          "type": "tuple"
        },
        {
          "components": [
            {
              "internalType": "address",
              "name": "router",
              "type": "address"
            },
            {
              "internalType": "address",
              "name": "factory",
              "type": "address"
            },
            {
              "internalType": "address",
              "name": "weth",
              "type": "address"
            }
          ],
          "internalType": "struct IDOPool.DEXInfo",
          "name": "_dexInfo",
          "type": "tuple"
        },
        {
          "internalType": "address",
          "name": "_lockerFactoryAddress",
          "type": "address"
        },
        {
          "internalType": "string",
          "name": "_metadataURL",
          "type": "string"
        }
      ],
      "stateMutability": "nonpayable",
      "type": "constructor"
    },
    {
      "anonymous": false,
      "inputs": [
        {
          "indexed": true,
          "internalType": "address",
          "name": "previousOwner",
          "type": "address"
        },
        {
          "indexed": true,
          "internalType": "address",
          "name": "newOwner",
          "type": "address"
        }
      ],
      "name": "OwnershipTransferred",
      "type": "event"
    },
    {
      "anonymous": false,
      "inputs": [
        {
          "indexed": true,
          "internalType": "address",
          "name": "holder",
          "type": "address"
        },
        {
          "indexed": false,
          "internalType": "uint256",
          "name": "ethAmount",
          "type": "uint256"
        },
        {
          "indexed": false,
          "internalType": "uint256",
          "name": "tokenAmount",
          "type": "uint256"
        }
      ],
      "name": "TokensDebt",
      "type": "event"
    },
    {
      "anonymous": false,
      "inputs": [
        {
          "indexed": true,
          "internalType": "address",
          "name": "holder",
          "type": "address"
        },
        {
          "indexed": false,
          "internalType": "uint256",
          "name": "amount",
          "type": "uint256"
        }
      ],
      "name": "TokensWithdrawn",
      "type": "event"
    },
    {
      "inputs": [],
      "name": "claim",
      "outputs": [],
      "stateMutability": "nonpayable",
      "type": "function"
    },
    {
      "inputs": [
        {
          "internalType": "address",
          "name": "_user",
          "type": "address"
        }
      ],
      "name": "claimFor",
      "outputs": [],
      "stateMutability": "nonpayable",
      "type": "function"
    },
    {
      "inputs": [],
      "name": "decimals",
      "outputs": [
        {
          "internalType": "uint256",
          "name": "",
          "type": "uint256"
        }
      ],
      "stateMutability": "view",
      "type": "function"
    },
    {
      "inputs": [],
      "name": "dexInfo",
      "outputs": [
        {
          "internalType": "address",
          "name": "router",
          "type": "address"
        },
        {
          "internalType": "address",
          "name": "factory",
          "type": "address"
        },
        {
          "internalType": "address",
          "name": "weth",
          "type": "address"
        }
      ],
      "stateMutability": "view",
      "type": "function"
    },
    {
      "inputs": [],
      "name": "distributed",
      "outputs": [
        {
          "internalType": "bool",
          "name": "",
          "type": "bool"
        }
      ],
      "stateMutability": "view",
      "type": "function"
    },
    {
      "inputs": [],
      "name": "distributedTokens",
      "outputs": [
        {
          "internalType": "uint256",
          "name": "",
          "type": "uint256"
        }
      ],
      "stateMutability": "view",
      "type": "function"
    },
    {
      "inputs": [],
      "name": "finInfo",
      "outputs": [
        {
          "internalType": "uint256",
          "name": "tokenPrice",
          "type": "uint256"
        },
        {
          "internalType": "uint256",
          "name": "softCap",
          "type": "uint256"
        },
        {
          "internalType": "uint256",
          "name": "hardCap",
          "type": "uint256"
        },
        {
          "internalType": "uint256",
          "name": "minEthPayment",
          "type": "uint256"
        },
        {
          "internalType": "uint256",
          "name": "maxEthPayment",
          "type": "uint256"
        },
        {
          "internalType": "uint256",
          "name": "listingPrice",
          "type": "uint256"
        },
        {
          "internalType": "uint256",
          "name": "lpInterestRate",
          "type": "uint256"
        }
      ],
      "stateMutability": "view",
      "type": "function"
    },
    {
      "inputs": [],
      "name": "getNotSoldToken",
      "outputs": [
        {
          "internalType": "uint256",
          "name": "",
          "type": "uint256"
        }
      ],
      "stateMutability": "view",
      "type": "function"
    },
    {
      "inputs": [],
      "name": "lockerFactory",
      "outputs": [
        {
          "internalType": "contract TokenLockerFactory",
          "name": "",
          "type": "address"
        }
      ],
      "stateMutability": "view",
      "type": "function"
    },
    {
      "inputs": [],
      "name": "metadataURL",
      "outputs": [
        {
          "internalType": "string",
          "name": "",
          "type": "string"
        }
      ],
      "stateMutability": "view",
      "type": "function"
    },
    {
      "inputs": [],
      "name": "owner",
      "outputs": [
        {
          "internalType": "address",
          "name": "",
          "type": "address"
        }
      ],
      "stateMutability": "view",
      "type": "function"
    },
    {
      "inputs": [],
      "name": "pay",
      "outputs": [],
      "stateMutability": "payable",
      "type": "function"
    },
    {
      "inputs": [
        {
          "internalType": "address",
          "name": "_tokenAddress",
          "type": "address"
        },
        {
          "internalType": "uint256",
          "name": "_tokenAmount",
          "type": "uint256"
        }
      ],
      "name": "recoverWrongTokens",
      "outputs": [],
      "stateMutability": "nonpayable",
      "type": "function"
    },
    {
      "inputs": [],
      "name": "refund",
      "outputs": [],
      "stateMutability": "nonpayable",
      "type": "function"
    },
    {
      "inputs": [],
      "name": "refundTokens",
      "outputs": [],
      "stateMutability": "nonpayable",
      "type": "function"
    },
    {
      "inputs": [],
      "name": "renounceOwnership",
      "outputs": [],
      "stateMutability": "nonpayable",
      "type": "function"
    },
    {
      "inputs": [],
      "name": "rewardToken",
      "outputs": [
        {
          "internalType": "contract ERC20",
          "name": "",
          "type": "address"
        }
      ],
      "stateMutability": "view",
      "type": "function"
    },
    {
      "inputs": [
        {
          "internalType": "string",
          "name": "_metadataURL",
          "type": "string"
        }
      ],
      "name": "setMetadataURL",
      "outputs": [],
      "stateMutability": "nonpayable",
      "type": "function"
    },
    {
      "inputs": [],
      "name": "timestamps",
      "outputs": [
        {
          "internalType": "uint256",
          "name": "startTimestamp",
          "type": "uint256"
        },
        {
          "internalType": "uint256",
          "name": "endTimestamp",
          "type": "uint256"
        },
        {
          "internalType": "uint256",
          "name": "unlockTimestamp",
          "type": "uint256"
        }
      ],
      "stateMutability": "view",
      "type": "function"
    },
    {
      "inputs": [],
      "name": "tokensForDistribution",
      "outputs": [
        {
          "internalType": "uint256",
          "name": "",
          "type": "uint256"
        }
      ],
      "stateMutability": "view",
      "type": "function"
    },
    {
      "inputs": [],
      "name": "totalInvestedETH",
      "outputs": [
        {
          "internalType": "uint256",
          "name": "",
          "type": "uint256"
        }
      ],
      "stateMutability": "view",
      "type": "function"
    },
    {
      "inputs": [
        {
          "internalType": "address",
          "name": "newOwner",
          "type": "address"
        }
      ],
      "name": "transferOwnership",
      "outputs": [],
      "stateMutability": "nonpayable",
      "type": "function"
    },
    {
      "inputs": [
        {
          "internalType": "address",
          "name": "",
          "type": "address"
        }
      ],
      "name": "userInfo",
      "outputs": [
        {
          "internalType": "uint256",
          "name": "debt",
          "type": "uint256"
        },
        {
          "internalType": "uint256",
          "name": "total",
          "type": "uint256"
        },
        {
          "internalType": "uint256",
          "name": "totalInvestedETH",
          "type": "uint256"
        }
      ],
      "stateMutability": "view",
      "type": "function"
    },
    {
      "inputs": [],
      "name": "withdrawETH",
      "outputs": [],
      "stateMutability": "payable",
      "type": "function"
    },
    {
      "inputs": [],
      "name": "withdrawNotSoldTokens",
      "outputs": [],
      "stateMutability": "nonpayable",
      "type": "function"
    }
  ],
  "bytecode": "0x60806040526000601660006101000a81548160ff0219169083151502179055503480156200002c57600080fd5b50604051620047cf380380620047cf8339818101604052810190620000529190620008ad565b6200007262000066620002ed60201b60201c565b620002f560201b60201c565b6001808190555085600260006101000a81548173ffffffffffffffffffffffffffffffffffffffff021916908373ffffffffffffffffffffffffffffffffffffffff160217905550600260009054906101000a900473ffffffffffffffffffffffffffffffffffffffff1673ffffffffffffffffffffffffffffffffffffffff1663313ce5676040518163ffffffff1660e01b8152600401602060405180830381865afa15801562000128573d6000803e3d6000fd5b505050506040513d601f19601f820116820180604052508101906200014e9190620009ab565b60ff1660038190555081601260006101000a81548173ffffffffffffffffffffffffffffffffffffffff021916908373ffffffffffffffffffffffffffffffffffffffff160217905550846005600082015181600001556020820151816001015560408201518160020155606082015181600301556080820151816004015560a0820151816005015560c08201518160060155905050620001f584620003b960201b60201c565b82600f60008201518160000160006101000a81548173ffffffffffffffffffffffffffffffffffffffff021916908373ffffffffffffffffffffffffffffffffffffffff16021790555060208201518160010160006101000a81548173ffffffffffffffffffffffffffffffffffffffff021916908373ffffffffffffffffffffffffffffffffffffffff16021790555060408201518160020160006101000a81548173ffffffffffffffffffffffffffffffffffffffff021916908373ffffffffffffffffffffffffffffffffffffffff160217905550905050620002e1816200047660201b60201c565b50505050505062000e46565b600033905090565b60008060009054906101000a900473ffffffffffffffffffffffffffffffffffffffff169050816000806101000a81548173ffffffffffffffffffffffffffffffffffffffff021916908373ffffffffffffffffffffffffffffffffffffffff1602179055508173ffffffffffffffffffffffffffffffffffffffff168173ffffffffffffffffffffffffffffffffffffffff167f8be0079c531659141344cd1fd0a4f28419497f9722a3daafe3b4186f6b6457e060405160405180910390a35050565b806020015181600001511062000406576040517f08c379a0000000000000000000000000000000000000000000000000000000008152600401620003fd9062000a64565b60405180910390fd5b428160200151116200044f576040517f08c379a0000000000000000000000000000000000000000000000000000000008152600401620004469062000afc565b60405180910390fd5b80600c60008201518160000155602082015181600101556040820151816002015590505050565b806004908162000487919062000d5f565b5050565b6000604051905090565b600080fd5b600080fd5b600073ffffffffffffffffffffffffffffffffffffffff82169050919050565b6000620004cc826200049f565b9050919050565b6000620004e082620004bf565b9050919050565b620004f281620004d3565b8114620004fe57600080fd5b50565b6000815190506200051281620004e7565b92915050565b600080fd5b6000601f19601f8301169050919050565b7f4e487b7100000000000000000000000000000000000000000000000000000000600052604160045260246000fd5b62000568826200051d565b810181811067ffffffffffffffff821117156200058a57620005896200052e565b5b80604052505050565b60006200059f6200048b565b9050620005ad82826200055d565b919050565b6000819050919050565b620005c781620005b2565b8114620005d357600080fd5b50565b600081519050620005e781620005bc565b92915050565b600060e0828403121562000606576200060562000518565b5b6200061260e062000593565b905060006200062484828501620005d6565b60008301525060206200063a84828501620005d6565b60208301525060406200065084828501620005d6565b60408301525060606200066684828501620005d6565b60608301525060806200067c84828501620005d6565b60808301525060a06200069284828501620005d6565b60a08301525060c0620006a884828501620005d6565b60c08301525092915050565b600060608284031215620006cd57620006cc62000518565b5b620006d9606062000593565b90506000620006eb84828501620005d6565b60008301525060206200070184828501620005d6565b60208301525060406200071784828501620005d6565b60408301525092915050565b6200072e81620004bf565b81146200073a57600080fd5b50565b6000815190506200074e8162000723565b92915050565b6000606082840312156200076d576200076c62000518565b5b62000779606062000593565b905060006200078b848285016200073d565b6000830152506020620007a1848285016200073d565b6020830152506040620007b7848285016200073d565b60408301525092915050565b600080fd5b600080fd5b600067ffffffffffffffff821115620007eb57620007ea6200052e565b5b620007f6826200051d565b9050602081019050919050565b60005b838110156200082357808201518184015260208101905062000806565b60008484015250505050565b6000620008466200084084620007cd565b62000593565b905082815260208101848484011115620008655762000864620007c8565b5b6200087284828562000803565b509392505050565b600082601f830112620008925762000891620007c3565b5b8151620008a48482602086016200082f565b91505092915050565b6000806000806000806102008789031215620008ce57620008cd62000495565b5b6000620008de89828a0162000501565b9650506020620008f189828a01620005ed565b9550506101006200090589828a01620006b4565b9450506101606200091989828a0162000754565b9350506101c06200092d89828a016200073d565b9250506101e087015167ffffffffffffffff8111156200095257620009516200049a565b5b6200096089828a016200087a565b9150509295509295509295565b600060ff82169050919050565b62000985816200096d565b81146200099157600080fd5b50565b600081519050620009a5816200097a565b92915050565b600060208284031215620009c457620009c362000495565b5b6000620009d48482850162000994565b91505092915050565b600082825260208201905092915050565b7f53746172742074696d657374616d70206d757374206265206c6573732074686160008201527f6e2066696e6973682074696d657374616d700000000000000000000000000000602082015250565b600062000a4c603283620009dd565b915062000a5982620009ee565b604082019050919050565b6000602082019050818103600083015262000a7f8162000a3d565b9050919050565b7f46696e6973682074696d657374616d70206d757374206265206d6f726520746860008201527f616e2063757272656e7420626c6f636b00000000000000000000000000000000602082015250565b600062000ae4603083620009dd565b915062000af18262000a86565b604082019050919050565b6000602082019050818103600083015262000b178162000ad5565b9050919050565b600081519050919050565b7f4e487b7100000000000000000000000000000000000000000000000000000000600052602260045260246000fd5b6000600282049050600182168062000b7157607f821691505b60208210810362000b875762000b8662000b29565b5b50919050565b60008190508160005260206000209050919050565b60006020601f8301049050919050565b600082821b905092915050565b60006008830262000bf17fffffffffffffffffffffffffffffffffffffffffffffffffffffffffffffffff8262000bb2565b62000bfd868362000bb2565b95508019841693508086168417925050509392505050565b6000819050919050565b600062000c4062000c3a62000c3484620005b2565b62000c15565b620005b2565b9050919050565b6000819050919050565b62000c5c8362000c1f565b62000c7462000c6b8262000c47565b84845462000bbf565b825550505050565b600090565b62000c8b62000c7c565b62000c9881848462000c51565b505050565b5b8181101562000cc05762000cb460008262000c81565b60018101905062000c9e565b5050565b601f82111562000d0f5762000cd98162000b8d565b62000ce48462000ba2565b8101602085101562000cf4578190505b62000d0c62000d038562000ba2565b83018262000c9d565b50505b505050565b600082821c905092915050565b600062000d346000198460080262000d14565b1980831691505092915050565b600062000d4f838362000d21565b9150826002028217905092915050565b62000d6a8262000b1e565b67ffffffffffffffff81111562000d865762000d856200052e565b5b62000d92825462000b58565b62000d9f82828562000cc4565b600060209050601f83116001811462000dd7576000841562000dc2578287015190505b62000dce858262000d41565b86555062000e3e565b601f19841662000de78662000b8d565b60005b8281101562000e115784890151825560018201915060208501945060208101905062000dea565b8683101562000e31578489015162000e2d601f89168262000d21565b8355505b6001600288020188555050505b505050505050565b6139798062000e566000396000f3fe6080604052600436106101665760003560e01c806362bea93f116100d1578063d8d2a56d1161008a578063f2fde38b11610064578063f2fde38b14610464578063f7c618c11461048d578063f84b903e146104b8578063fd46a171146104e357610166565b8063d8d2a56d14610404578063ddeae03314610431578063e086e5ec1461045a57610166565b806362bea93f14610340578063710075091461036b578063715018a614610382578063747daec5146103995780638da5cb5b146103c2578063c6a0e27d146103ed57610166565b80633f138d4b116101235780633f138d4b14610266578063491447a81461028f5780634b1a4c0c146102bc5780634e71d92d146102e7578063586360ce146102fe578063590e1ae31461032957610166565b806312d3675e1461016b5780631959a0021461019c5780631b9265b8146101db5780632a123b16146101e55780632dcc8c6614610210578063313ce5671461023b575b600080fd5b34801561017757600080fd5b5061018061050e565b604051610193979695949392919061200e565b60405180910390f35b3480156101a857600080fd5b506101c360048036038101906101be91906120ef565b61053e565b6040516101d29392919061211c565b60405180910390f35b6101e3610568565b005b3480156101f157600080fd5b506101fa61087e565b60405161020791906121b2565b60405180910390f35b34801561021c57600080fd5b506102256108a4565b604051610232919061225d565b60405180910390f35b34801561024757600080fd5b50610250610932565b60405161025d919061227f565b60405180910390f35b34801561027257600080fd5b5061028d600480360381019061028891906122c6565b610938565b005b34801561029b57600080fd5b506102a46109c9565b6040516102b39392919061211c565b60405180910390f35b3480156102c857600080fd5b506102d16109e1565b6040516102de919061227f565b60405180910390f35b3480156102f357600080fd5b506102fc6109e7565b005b34801561030a57600080fd5b506103136109f2565b604051610320919061227f565b60405180910390f35b34801561033557600080fd5b5061033e6109f8565b005b34801561034c57600080fd5b50610355610be6565b604051610362919061227f565b60405180910390f35b34801561037757600080fd5b50610380610cb6565b005b34801561038e57600080fd5b50610397610e81565b005b3480156103a557600080fd5b506103c060048036038101906103bb919061243b565b610e95565b005b3480156103ce57600080fd5b506103d7610ea8565b6040516103e49190612493565b60405180910390f35b3480156103f957600080fd5b50610402610ed1565b005b34801561041057600080fd5b50610419610fc7565b604051610428939291906124ae565b60405180910390f35b34801561043d57600080fd5b50610458600480360381019061045391906120ef565b61103f565b005b61046261104b565b005b34801561047057600080fd5b5061048b600480360381019061048691906120ef565b611826565b005b34801561049957600080fd5b506104a26118a9565b6040516104af9190612506565b60405180910390f35b3480156104c457600080fd5b506104cd6118cf565b6040516104da919061253c565b60405180910390f35b3480156104ef57600080fd5b506104f86118e2565b604051610505919061227f565b60405180910390f35b60058060000154908060010154908060020154908060030154908060040154908060050154908060060154905087565b60176020528060005260406000206000915090508060000154908060010154908060020154905083565b600c600001544210156105b0576040517f08c379a00000000000000000000000000000000000000000000000000000000081526004016105a7906125a3565b60405180910390fd5b600c6001015442106105f7576040517f08c379a00000000000000000000000000000000000000000000000000000000081526004016105ee9061260f565b60405180910390fd5b60056003015434101561063f576040517f08c379a00000000000000000000000000000000000000000000000000000000081526004016106369061267b565b60405180910390fd5b600560040154341115610687576040517f08c379a000000000000000000000000000000000000000000000000000000000815260040161067e906126e7565b60405180910390fd5b6005600201546106a2346013546118e890919063ffffffff16565b11156106e3576040517f08c379a00000000000000000000000000000000000000000000000000000000081526004016106da90612753565b60405180910390fd5b6000601760003373ffffffffffffffffffffffffffffffffffffffff1673ffffffffffffffffffffffffffffffffffffffff16815260200190815260200160002090506005600401546107433483600201546118e890919063ffffffff16565b1115610784576040517f08c379a000000000000000000000000000000000000000000000000000000000815260040161077b906126e7565b60405180910390fd5b6000610795346005600001546118fe565b90506107ac346013546118e890919063ffffffff16565b6013819055506107c7816014546118e890919063ffffffff16565b6014819055506107e43483600201546118e890919063ffffffff16565b82600201819055506108038183600101546118e890919063ffffffff16565b82600101819055506108228183600001546118e890919063ffffffff16565b82600001819055503373ffffffffffffffffffffffffffffffffffffffff167fb55d4ca2fc644ca3f8cdc9c907826e24acd68d2b2d4d73f48b8f2378dbaedf5d3483604051610872929190612773565b60405180910390a25050565b601260009054906101000a900473ffffffffffffffffffffffffffffffffffffffff1681565b600480546108b1906127cb565b80601f01602080910402602001604051908101604052809291908181526020018280546108dd906127cb565b801561092a5780601f106108ff5761010080835404028352916020019161092a565b820191906000526020600020905b81548152906001019060200180831161090d57829003601f168201915b505050505081565b60035481565b61094061192d565b600260009054906101000a900473ffffffffffffffffffffffffffffffffffffffff1673ffffffffffffffffffffffffffffffffffffffff168273ffffffffffffffffffffffffffffffffffffffff160361099a57600080fd5b6109c533828473ffffffffffffffffffffffffffffffffffffffff166119ab9092919063ffffffff16565b5050565b600c8060000154908060010154908060020154905083565b60145481565b6109f033611a31565b565b60155481565b600c600101544211610a3f576040517f08c379a0000000000000000000000000000000000000000000000000000000008152600401610a3690612848565b60405180910390fd5b60056001015460135410610a88576040517f08c379a0000000000000000000000000000000000000000000000000000000008152600401610a7f906128b4565b60405180910390fd5b6000601760003373ffffffffffffffffffffffffffffffffffffffff1673ffffffffffffffffffffffffffffffffffffffff168152602001908152602001600020905060008160020154905060008111610b17576040517f08c379a0000000000000000000000000000000000000000000000000000000008152600401610b0e90612920565b60405180910390fd5b60008260000181905550600082600201819055506000826001018190555060003373ffffffffffffffffffffffffffffffffffffffff1682604051610b5b90612971565b60006040518083038185875af1925050503d8060008114610b98576040519150601f19603f3d011682016040523d82523d6000602084013e610b9d565b606091505b5050905080610be1576040517f08c379a0000000000000000000000000000000000000000000000000000000008152600401610bd8906129d2565b60405180910390fd5b505050565b600080600260009054906101000a900473ffffffffffffffffffffffffffffffffffffffff1673ffffffffffffffffffffffffffffffffffffffff166370a08231306040518263ffffffff1660e01b8152600401610c449190612493565b602060405180830381865afa158015610c61573d6000803e3d6000fd5b505050506040513d601f19601f82011682018060405250810190610c859190612a07565b9050610cb0601454610ca2601554846118e890919063ffffffff16565b611c2690919063ffffffff16565b91505090565b610cbe61192d565b600c600101544211610d05576040517f08c379a0000000000000000000000000000000000000000000000000000000008152600401610cfc90612848565b60405180910390fd5b60056001015460135410610d4e576040517f08c379a0000000000000000000000000000000000000000000000000000000008152600401610d45906128b4565b60405180910390fd5b6000600260009054906101000a900473ffffffffffffffffffffffffffffffffffffffff1673ffffffffffffffffffffffffffffffffffffffff166370a08231306040518263ffffffff1660e01b8152600401610dab9190612493565b602060405180830381865afa158015610dc8573d6000803e3d6000fd5b505050506040513d601f19601f82011682018060405250810190610dec9190612a07565b905060008111610e31576040517f08c379a0000000000000000000000000000000000000000000000000000000008152600401610e2890612aa6565b60405180910390fd5b610e7e3382600260009054906101000a900473ffffffffffffffffffffffffffffffffffffffff1673ffffffffffffffffffffffffffffffffffffffff166119ab9092919063ffffffff16565b50565b610e8961192d565b610e936000611c3c565b565b8060049081610ea49190612c68565b5050565b60008060009054906101000a900473ffffffffffffffffffffffffffffffffffffffff16905090565b610ed961192d565b601660009054906101000a900460ff16610f28576040517f08c379a0000000000000000000000000000000000000000000000000000000008152600401610f1f90612dac565b60405180910390fd5b6000610f32610be6565b905060008111610f77576040517f08c379a0000000000000000000000000000000000000000000000000000000008152600401610f6e90612e3e565b60405180910390fd5b610fc43382600260009054906101000a900473ffffffffffffffffffffffffffffffffffffffff1673ffffffffffffffffffffffffffffffffffffffff166119ab9092919063ffffffff16565b50565b600f8060000160009054906101000a900473ffffffffffffffffffffffffffffffffffffffff16908060010160009054906101000a900473ffffffffffffffffffffffffffffffffffffffff16908060020160009054906101000a900473ffffffffffffffffffffffffffffffffffffffff16905083565b61104881611a31565b50565b61105361192d565b600c60010154421161109a576040517f08c379a000000000000000000000000000000000000000000000000000000000815260040161109190612848565b60405180910390fd5b60056001015460135410156110e4576040517f08c379a00000000000000000000000000000000000000000000000000000000081526004016110db90612ed0565b60405180910390fd5b601660009054906101000a900460ff1615611134576040517f08c379a000000000000000000000000000000000000000000000000000000000815260040161112b90612f3c565b60405180910390fd5b60004790506000600560060154118015611152575060006005800154115b1561175a5734816111639190612f8b565b9050600060646005600601548361117a9190612fbf565b6111849190613030565b9050600081836111949190612f8b565b905060006111a68360058001546118fe565b90506000600f60000160009054906101000a900473ffffffffffffffffffffffffffffffffffffffff169050600260009054906101000a900473ffffffffffffffffffffffffffffffffffffffff1673ffffffffffffffffffffffffffffffffffffffff1663095ea7b382846040518363ffffffff1660e01b815260040161122f929190613061565b6020604051808303816000875af115801561124e573d6000803e3d6000fd5b505050506040513d601f19601f8201168201806040525081019061127291906130b6565b5060008173ffffffffffffffffffffffffffffffffffffffff1663f305d71986600260009054906101000a900473ffffffffffffffffffffffffffffffffffffffff168660008030610168426112c891906130e3565b6040518863ffffffff1660e01b81526004016112e996959493929190613152565b60606040518083038185885af1158015611307573d6000803e3d6000fd5b50505050506040513d601f19601f8201168201806040525081019061132c91906131b3565b925050506000600f60010160009054906101000a900473ffffffffffffffffffffffffffffffffffffffff1673ffffffffffffffffffffffffffffffffffffffff1663e6a43905600260009054906101000a900473ffffffffffffffffffffffffffffffffffffffff16600f60020160009054906101000a900473ffffffffffffffffffffffffffffffffffffffff166040518363ffffffff1660e01b81526004016113d9929190613206565b602060405180830381865afa1580156113f6573d6000803e3d6000fd5b505050506040513d601f19601f8201168201806040525081019061141a9190613244565b9050600081905042600c600201541115611613578073ffffffffffffffffffffffffffffffffffffffff1663095ea7b3601260009054906101000a900473ffffffffffffffffffffffffffffffffffffffff16856040518363ffffffff1660e01b815260040161148b929190613061565b6020604051808303816000875af11580156114aa573d6000803e3d6000fd5b505050506040513d601f19601f820116820180604052508101906114ce91906130b6565b50601260009054906101000a900473ffffffffffffffffffffffffffffffffffffffff1673ffffffffffffffffffffffffffffffffffffffff166303f3dbac34838473ffffffffffffffffffffffffffffffffffffffff166395d89b416040518163ffffffff1660e01b8152600401600060405180830381865afa15801561155a573d6000803e3d6000fd5b505050506040513d6000823e3d601f19601f8201168201806040525081019061158391906132e1565b604051602001611593919061338c565b6040516020818303038152906040528733600c600201546040518763ffffffff1660e01b81526004016115ca9594939291906133b2565b60206040518083038185885af11580156115e8573d6000803e3d6000fd5b50505050506040513d601f19601f8201168201806040525081019061160d9190613244565b506116a1565b8073ffffffffffffffffffffffffffffffffffffffff1663a9059cbb33856040518363ffffffff1660e01b815260040161164e929190613061565b6020604051808303816000875af115801561166d573d6000803e3d6000fd5b505050506040513d601f19601f8201168201806040525081019061169191906130b6565b50348661169e91906130e3565b95505b60003373ffffffffffffffffffffffffffffffffffffffff16876040516116c790612971565b60006040518083038185875af1925050503d8060008114611704576040519150601f19603f3d011682016040523d82523d6000602084013e611709565b606091505b505090508061174d576040517f08c379a0000000000000000000000000000000000000000000000000000000008152600401611744906129d2565b60405180910390fd5b5050505050505050611808565b60003373ffffffffffffffffffffffffffffffffffffffff168260405161178090612971565b60006040518083038185875af1925050503d80600081146117bd576040519150601f19603f3d011682016040523d82523d6000602084013e6117c2565b606091505b5050905080611806576040517f08c379a00000000000000000000000000000000000000000000000000000000081526004016117fd906129d2565b60405180910390fd5b505b6001601660006101000a81548160ff02191690831515021790555050565b61182e61192d565b600073ffffffffffffffffffffffffffffffffffffffff168173ffffffffffffffffffffffffffffffffffffffff160361189d576040517f08c379a00000000000000000000000000000000000000000000000000000000081526004016118949061347e565b60405180910390fd5b6118a681611c3c565b50565b600260009054906101000a900473ffffffffffffffffffffffffffffffffffffffff1681565b601660009054906101000a900460ff1681565b60135481565b600081836118f691906130e3565b905092915050565b6000600354600a61190f91906135d1565b828461191b9190613030565b6119259190612fbf565b905092915050565b611935611d00565b73ffffffffffffffffffffffffffffffffffffffff16611953610ea8565b73ffffffffffffffffffffffffffffffffffffffff16146119a9576040517f08c379a00000000000000000000000000000000000000000000000000000000081526004016119a090613668565b60405180910390fd5b565b611a2c8363a9059cbb60e01b84846040516024016119ca929190613061565b604051602081830303815290604052907bffffffffffffffffffffffffffffffffffffffffffffffffffffffff19166020820180517bffffffffffffffffffffffffffffffffffffffffffffffffffffffff8381831617835250505050611d08565b505050565b611a39611dd0565b600c600101544211611a80576040517f08c379a0000000000000000000000000000000000000000000000000000000008152600401611a7790612848565b60405180910390fd5b6005600101546013541015611aca576040517f08c379a0000000000000000000000000000000000000000000000000000000008152600401611ac190612ed0565b60405180910390fd5b6000601760008373ffffffffffffffffffffffffffffffffffffffff1673ffffffffffffffffffffffffffffffffffffffff168152602001908152602001600020905060008160000154905060008111611b59576040517f08c379a0000000000000000000000000000000000000000000000000000000008152600401611b50906136d4565b60405180910390fd5b60008260000181905550611b78816015546118e890919063ffffffff16565b601581905550611bcb8382600260009054906101000a900473ffffffffffffffffffffffffffffffffffffffff1673ffffffffffffffffffffffffffffffffffffffff166119ab9092919063ffffffff16565b8273ffffffffffffffffffffffffffffffffffffffff167f6352c5382c4a4578e712449ca65e83cdb392d045dfcf1cad9615189db2da244b82604051611c11919061227f565b60405180910390a25050611c23611e1f565b50565b60008183611c349190612f8b565b905092915050565b60008060009054906101000a900473ffffffffffffffffffffffffffffffffffffffff169050816000806101000a81548173ffffffffffffffffffffffffffffffffffffffff021916908373ffffffffffffffffffffffffffffffffffffffff1602179055508173ffffffffffffffffffffffffffffffffffffffff168173ffffffffffffffffffffffffffffffffffffffff167f8be0079c531659141344cd1fd0a4f28419497f9722a3daafe3b4186f6b6457e060405160405180910390a35050565b600033905090565b6000611d6a826040518060400160405280602081526020017f5361666545524332303a206c6f772d6c6576656c2063616c6c206661696c65648152508573ffffffffffffffffffffffffffffffffffffffff16611e289092919063ffffffff16565b9050600081511480611d8c575080806020019051810190611d8b91906130b6565b5b611dcb576040517f08c379a0000000000000000000000000000000000000000000000000000000008152600401611dc290613766565b60405180910390fd5b505050565b600260015403611e15576040517f08c379a0000000000000000000000000000000000000000000000000000000008152600401611e0c906137d2565b60405180910390fd5b6002600181905550565b60018081905550565b6060611e378484600085611e40565b90509392505050565b606082471015611e85576040517f08c379a0000000000000000000000000000000000000000000000000000000008152600401611e7c90613864565b60405180910390fd5b6000808673ffffffffffffffffffffffffffffffffffffffff168587604051611eae91906138c0565b60006040518083038185875af1925050503d8060008114611eeb576040519150601f19603f3d011682016040523d82523d6000602084013e611ef0565b606091505b5091509150611f0187838387611f0d565b92505050949350505050565b60608315611f6f576000835103611f6757611f2785611f82565b611f66576040517f08c379a0000000000000000000000000000000000000000000000000000000008152600401611f5d90613923565b60405180910390fd5b5b829050611f7a565b611f798383611fa5565b5b949350505050565b6000808273ffffffffffffffffffffffffffffffffffffffff163b119050919050565b600082511115611fb85781518083602001fd5b806040517f08c379a0000000000000000000000000000000000000000000000000000000008152600401611fec919061225d565b60405180910390fd5b6000819050919050565b61200881611ff5565b82525050565b600060e082019050612023600083018a611fff565b6120306020830189611fff565b61203d6040830188611fff565b61204a6060830187611fff565b6120576080830186611fff565b61206460a0830185611fff565b61207160c0830184611fff565b98975050505050505050565b6000604051905090565b600080fd5b600080fd5b600073ffffffffffffffffffffffffffffffffffffffff82169050919050565b60006120bc82612091565b9050919050565b6120cc816120b1565b81146120d757600080fd5b50565b6000813590506120e9816120c3565b92915050565b60006020828403121561210557612104612087565b5b6000612113848285016120da565b91505092915050565b60006060820190506121316000830186611fff565b61213e6020830185611fff565b61214b6040830184611fff565b949350505050565b6000819050919050565b600061217861217361216e84612091565b612153565b612091565b9050919050565b600061218a8261215d565b9050919050565b600061219c8261217f565b9050919050565b6121ac81612191565b82525050565b60006020820190506121c760008301846121a3565b92915050565b600081519050919050565b600082825260208201905092915050565b60005b838110156122075780820151818401526020810190506121ec565b60008484015250505050565b6000601f19601f8301169050919050565b600061222f826121cd565b61223981856121d8565b93506122498185602086016121e9565b61225281612213565b840191505092915050565b600060208201905081810360008301526122778184612224565b905092915050565b60006020820190506122946000830184611fff565b92915050565b6122a381611ff5565b81146122ae57600080fd5b50565b6000813590506122c08161229a565b92915050565b600080604083850312156122dd576122dc612087565b5b60006122eb858286016120da565b92505060206122fc858286016122b1565b9150509250929050565b600080fd5b600080fd5b7f4e487b7100000000000000000000000000000000000000000000000000000000600052604160045260246000fd5b61234882612213565b810181811067ffffffffffffffff8211171561236757612366612310565b5b80604052505050565b600061237a61207d565b9050612386828261233f565b919050565b600067ffffffffffffffff8211156123a6576123a5612310565b5b6123af82612213565b9050602081019050919050565b82818337600083830152505050565b60006123de6123d98461238b565b612370565b9050828152602081018484840111156123fa576123f961230b565b5b6124058482856123bc565b509392505050565b600082601f83011261242257612421612306565b5b81356124328482602086016123cb565b91505092915050565b60006020828403121561245157612450612087565b5b600082013567ffffffffffffffff81111561246f5761246e61208c565b5b61247b8482850161240d565b91505092915050565b61248d816120b1565b82525050565b60006020820190506124a86000830184612484565b92915050565b60006060820190506124c36000830186612484565b6124d06020830185612484565b6124dd6040830184612484565b949350505050565b60006124f08261217f565b9050919050565b612500816124e5565b82525050565b600060208201905061251b60008301846124f7565b92915050565b60008115159050919050565b61253681612521565b82525050565b6000602082019050612551600083018461252d565b92915050565b7f4e6f742073746172746564000000000000000000000000000000000000000000600082015250565b600061258d600b836121d8565b915061259882612557565b602082019050919050565b600060208201905081810360008301526125bc81612580565b9050919050565b7f456e646564000000000000000000000000000000000000000000000000000000600082015250565b60006125f96005836121d8565b9150612604826125c3565b602082019050919050565b60006020820190508181036000830152612628816125ec565b9050919050565b7f4c657373207468656e206d696e20616d6f756e74000000000000000000000000600082015250565b60006126656014836121d8565b91506126708261262f565b602082019050919050565b6000602082019050818103600083015261269481612658565b9050919050565b7f4d6f7265207468656e206d617820616d6f756e74000000000000000000000000600082015250565b60006126d16014836121d8565b91506126dc8261269b565b602082019050919050565b60006020820190508181036000830152612700816126c4565b9050919050565b7f4f76657266696c6c656400000000000000000000000000000000000000000000600082015250565b600061273d600a836121d8565b915061274882612707565b602082019050919050565b6000602082019050818103600083015261276c81612730565b9050919050565b60006040820190506127886000830185611fff565b6127956020830184611fff565b9392505050565b7f4e487b7100000000000000000000000000000000000000000000000000000000600052602260045260246000fd5b600060028204905060018216806127e357607f821691505b6020821081036127f6576127f561279c565b5b50919050565b7f5468652049444f20706f6f6c20686173206e6f7420656e6465642e0000000000600082015250565b6000612832601b836121d8565b915061283d826127fc565b602082019050919050565b6000602082019050818103600083015261286181612825565b9050919050565b7f5468652049444f20706f6f6c2068617320726561636820736f6674206361702e600082015250565b600061289e6020836121d8565b91506128a982612868565b602082019050919050565b600060208201905081810360008301526128cd81612891565b9050919050565b7f596f752068617665206e6f20696e766573746d656e742e000000000000000000600082015250565b600061290a6017836121d8565b9150612915826128d4565b602082019050919050565b60006020820190508181036000830152612939816128fd565b9050919050565b600081905092915050565b50565b600061295b600083612940565b91506129668261294b565b600082019050919050565b600061297c8261294e565b9150819050919050565b7f5472616e73666572206661696c65642e00000000000000000000000000000000600082015250565b60006129bc6010836121d8565b91506129c782612986565b602082019050919050565b600060208201905081810360008301526129eb816129af565b9050919050565b600081519050612a018161229a565b92915050565b600060208284031215612a1d57612a1c612087565b5b6000612a2b848285016129f2565b91505092915050565b7f5468652049444f20706f6f6c20686173206e6f7420726566756e6420746f6b6560008201527f6e732e0000000000000000000000000000000000000000000000000000000000602082015250565b6000612a906023836121d8565b9150612a9b82612a34565b604082019050919050565b60006020820190508181036000830152612abf81612a83565b9050919050565b60008190508160005260206000209050919050565b60006020601f8301049050919050565b600082821b905092915050565b600060088302612b287fffffffffffffffffffffffffffffffffffffffffffffffffffffffffffffffff82612aeb565b612b328683612aeb565b95508019841693508086168417925050509392505050565b6000612b65612b60612b5b84611ff5565b612153565b611ff5565b9050919050565b6000819050919050565b612b7f83612b4a565b612b93612b8b82612b6c565b848454612af8565b825550505050565b600090565b612ba8612b9b565b612bb3818484612b76565b505050565b5b81811015612bd757612bcc600082612ba0565b600181019050612bb9565b5050565b601f821115612c1c57612bed81612ac6565b612bf684612adb565b81016020851015612c05578190505b612c19612c1185612adb565b830182612bb8565b50505b505050565b600082821c905092915050565b6000612c3f60001984600802612c21565b1980831691505092915050565b6000612c588383612c2e565b9150826002028217905092915050565b612c71826121cd565b67ffffffffffffffff811115612c8a57612c89612310565b5b612c9482546127cb565b612c9f828285612bdb565b600060209050601f831160018114612cd25760008415612cc0578287015190505b612cca8582612c4c565b865550612d32565b601f198416612ce086612ac6565b60005b82811015612d0857848901518255600182019150602085019450602081019050612ce3565b86831015612d255784890151612d21601f891682612c2e565b8355505b6001600288020188555050505b505050505050565b7f576974686472617720616c6c6f7765642061667465722064697374726962757460008201527f65642e0000000000000000000000000000000000000000000000000000000000602082015250565b6000612d966023836121d8565b9150612da182612d3a565b604082019050919050565b60006020820190508181036000830152612dc581612d89565b9050919050565b7f5468652049444f20706f6f6c20686173206e6f7420756e736f6c6420746f6b6560008201527f6e732e0000000000000000000000000000000000000000000000000000000000602082015250565b6000612e286023836121d8565b9150612e3382612dcc565b604082019050919050565b60006020820190508181036000830152612e5781612e1b565b9050919050565b7f5468652049444f20706f6f6c20646964206e6f7420726561636820736f66742060008201527f6361702e00000000000000000000000000000000000000000000000000000000602082015250565b6000612eba6024836121d8565b9150612ec582612e5e565b604082019050919050565b60006020820190508181036000830152612ee981612ead565b9050919050565b7f416c72656164792064697374726962757465642e000000000000000000000000600082015250565b6000612f266014836121d8565b9150612f3182612ef0565b602082019050919050565b60006020820190508181036000830152612f5581612f19565b9050919050565b7f4e487b7100000000000000000000000000000000000000000000000000000000600052601160045260246000fd5b6000612f9682611ff5565b9150612fa183611ff5565b9250828203905081811115612fb957612fb8612f5c565b5b92915050565b6000612fca82611ff5565b9150612fd583611ff5565b9250828202612fe381611ff5565b91508282048414831517612ffa57612ff9612f5c565b5b5092915050565b7f4e487b7100000000000000000000000000000000000000000000000000000000600052601260045260246000fd5b600061303b82611ff5565b915061304683611ff5565b92508261305657613055613001565b5b828204905092915050565b60006040820190506130766000830185612484565b6130836020830184611fff565b9392505050565b61309381612521565b811461309e57600080fd5b50565b6000815190506130b08161308a565b92915050565b6000602082840312156130cc576130cb612087565b5b60006130da848285016130a1565b91505092915050565b60006130ee82611ff5565b91506130f983611ff5565b925082820190508082111561311157613110612f5c565b5b92915050565b6000819050919050565b600061313c61313761313284613117565b612153565b611ff5565b9050919050565b61314c81613121565b82525050565b600060c0820190506131676000830189612484565b6131746020830188611fff565b6131816040830187613143565b61318e6060830186613143565b61319b6080830185612484565b6131a860a0830184611fff565b979650505050505050565b6000806000606084860312156131cc576131cb612087565b5b60006131da868287016129f2565b93505060206131eb868287016129f2565b92505060406131fc868287016129f2565b9150509250925092565b600060408201905061321b6000830185612484565b6132286020830184612484565b9392505050565b60008151905061323e816120c3565b92915050565b60006020828403121561325a57613259612087565b5b60006132688482850161322f565b91505092915050565b600061328461327f8461238b565b612370565b9050828152602081018484840111156132a05761329f61230b565b5b6132ab8482856121e9565b509392505050565b600082601f8301126132c8576132c7612306565b5b81516132d8848260208601613271565b91505092915050565b6000602082840312156132f7576132f6612087565b5b600082015167ffffffffffffffff8111156133155761331461208c565b5b613321848285016132b3565b91505092915050565b600081905092915050565b6000613340826121cd565b61334a818561332a565b935061335a8185602086016121e9565b80840191505092915050565b7f20746f6b656e73206c6f636b6572000000000000000000000000000000000000815250565b60006133988284613335565b91506133a382613366565b600e8201915081905092915050565b600060a0820190506133c760008301886124f7565b81810360208301526133d98187612224565b90506133e86040830186611fff565b6133f56060830185612484565b6134026080830184611fff565b9695505050505050565b7f4f776e61626c653a206e6577206f776e657220697320746865207a65726f206160008201527f6464726573730000000000000000000000000000000000000000000000000000602082015250565b60006134686026836121d8565b91506134738261340c565b604082019050919050565b600060208201905081810360008301526134978161345b565b9050919050565b60008160011c9050919050565b6000808291508390505b60018511156134f5578086048111156134d1576134d0612f5c565b5b60018516156134e05780820291505b80810290506134ee8561349e565b94506134b5565b94509492505050565b60008261350e57600190506135ca565b8161351c57600090506135ca565b8160018114613532576002811461353c5761356b565b60019150506135ca565b60ff84111561354e5761354d612f5c565b5b8360020a91508482111561356557613564612f5c565b5b506135ca565b5060208310610133831016604e8410600b84101617156135a05782820a90508381111561359b5761359a612f5c565b5b6135ca565b6135ad84848460016134ab565b925090508184048111156135c4576135c3612f5c565b5b81810290505b9392505050565b60006135dc82611ff5565b91506135e783611ff5565b92506136147fffffffffffffffffffffffffffffffffffffffffffffffffffffffffffffffff84846134fe565b905092915050565b7f4f776e61626c653a2063616c6c6572206973206e6f7420746865206f776e6572600082015250565b60006136526020836121d8565b915061365d8261361c565b602082019050919050565b6000602082019050818103600083015261368181613645565b9050919050565b7f596f7520646f206e6f742068617665206465627420746f6b656e732e00000000600082015250565b60006136be601c836121d8565b91506136c982613688565b602082019050919050565b600060208201905081810360008301526136ed816136b1565b9050919050565b7f5361666545524332303a204552433230206f7065726174696f6e20646964206e60008201527f6f74207375636365656400000000000000000000000000000000000000000000602082015250565b6000613750602a836121d8565b915061375b826136f4565b604082019050919050565b6000602082019050818103600083015261377f81613743565b9050919050565b7f5265656e7472616e637947756172643a207265656e7472616e742063616c6c00600082015250565b60006137bc601f836121d8565b91506137c782613786565b602082019050919050565b600060208201905081810360008301526137eb816137af565b9050919050565b7f416464726573733a20696e73756666696369656e742062616c616e636520666f60008201527f722063616c6c0000000000000000000000000000000000000000000000000000602082015250565b600061384e6026836121d8565b9150613859826137f2565b604082019050919050565b6000602082019050818103600083015261387d81613841565b9050919050565b600081519050919050565b600061389a82613884565b6138a48185612940565b93506138b48185602086016121e9565b80840191505092915050565b60006138cc828461388f565b915081905092915050565b7f416464726573733a2063616c6c20746f206e6f6e2d636f6e7472616374000000600082015250565b600061390d601d836121d8565b9150613918826138d7565b602082019050919050565b6000602082019050818103600083015261393c81613900565b905091905056fea2646970667358221220cf1f0824f6a99ba2e35efd1f043486d6c7c6fe977d88b2dd13f9dd87dba1d26b64736f6c63430008120033",
  "linkReferences": {},
  "deployedLinkReferences": {}
}